{
  "contractName": "RockPaperScissors",
  "abi": [
    {
      "constant": true,
      "inputs": [
        {
          "name": "",
          "type": "uint256"
        }
      ],
      "name": "games",
      "outputs": [
        {
          "name": "status",
          "type": "uint8"
        },
        {
          "name": "start",
          "type": "uint256"
        },
        {
          "name": "winner",
          "type": "address"
        },
        {
          "name": "player1",
          "type": "address"
        },
        {
          "name": "player2",
          "type": "address"
        },
        {
          "name": "purse",
          "type": "uint256"
        },
        {
          "name": "cut",
          "type": "uint256"
        },
        {
          "name": "bet1",
          "type": "uint256"
        },
        {
          "name": "bet2",
          "type": "uint256"
        }
      ],
      "payable": false,
      "stateMutability": "view",
      "type": "function"
    },
    {
      "constant": true,
      "inputs": [
        {
          "name": "",
          "type": "address"
        }
      ],
      "name": "earnings",
      "outputs": [
        {
          "name": "",
          "type": "int256"
        }
      ],
      "payable": false,
      "stateMutability": "view",
      "type": "function"
    },
    {
      "constant": true,
      "inputs": [],
      "name": "owner",
      "outputs": [
        {
          "name": "",
          "type": "address"
        }
      ],
      "payable": false,
      "stateMutability": "view",
      "type": "function"
    },
    {
      "constant": true,
      "inputs": [],
      "name": "enigma",
      "outputs": [
        {
          "name": "",
          "type": "address"
        }
      ],
      "payable": false,
      "stateMutability": "view",
      "type": "function"
    },
    {
      "inputs": [
        {
          "name": "_enigmaAddress",
          "type": "address"
        },
        {
          "name": "_ownerPercent",
          "type": "uint256"
        }
      ],
      "payable": false,
      "stateMutability": "nonpayable",
      "type": "constructor"
    },
    {
      "anonymous": false,
      "inputs": [
        {
          "indexed": true,
          "name": "gameID",
          "type": "uint256"
        },
        {
          "indexed": true,
          "name": "winner",
          "type": "address"
        }
      ],
      "name": "Winner",
      "type": "event"
    },
    {
      "anonymous": false,
      "inputs": [
        {
          "indexed": true,
          "name": "gameID",
          "type": "uint256"
        },
        {
          "indexed": true,
          "name": "player1",
          "type": "address"
        }
      ],
      "name": "NewGame",
      "type": "event"
    },
    {
      "anonymous": false,
      "inputs": [
        {
          "indexed": true,
          "name": "gameID",
          "type": "uint256"
        },
        {
          "indexed": true,
          "name": "player",
          "type": "address"
        },
        {
          "indexed": true,
          "name": "amount",
          "type": "uint256"
        }
      ],
      "name": "Withdraw",
      "type": "event"
    },
    {
      "anonymous": false,
      "inputs": [
        {
          "indexed": true,
          "name": "gameID",
          "type": "uint256"
        },
        {
          "indexed": true,
          "name": "player",
          "type": "address"
        },
        {
          "indexed": false,
          "name": "bet",
          "type": "uint256"
        },
        {
          "indexed": false,
          "name": "firstBet",
          "type": "bool"
        }
      ],
      "name": "BetPlaced",
      "type": "event"
    },
    {
      "anonymous": false,
      "inputs": [
        {
          "indexed": true,
          "name": "gameID",
          "type": "uint256"
        },
        {
          "indexed": false,
          "name": "purse",
          "type": "uint256"
        },
        {
          "indexed": false,
          "name": "cut",
          "type": "uint256"
        }
      ],
      "name": "Purse",
      "type": "event"
    },
    {
      "constant": false,
      "inputs": [
        {
          "name": "gameID",
          "type": "uint256"
        },
        {
          "name": "player1",
          "type": "address"
        }
      ],
      "name": "newGame",
      "outputs": [],
      "payable": false,
      "stateMutability": "nonpayable",
      "type": "function"
    },
    {
      "constant": false,
      "inputs": [
        {
          "name": "gameID",
          "type": "uint256"
        }
      ],
      "name": "placeBet",
      "outputs": [],
      "payable": true,
      "stateMutability": "payable",
      "type": "function"
    },
    {
      "constant": false,
      "inputs": [
        {
          "name": "gameID",
          "type": "uint256"
        },
        {
          "name": "player2",
          "type": "address"
        },
        {
          "name": "winner",
          "type": "address"
        }
      ],
      "name": "setWinner",
      "outputs": [],
      "payable": false,
      "stateMutability": "nonpayable",
      "type": "function"
    },
    {
      "constant": false,
      "inputs": [
        {
          "name": "gameID",
          "type": "uint256"
        }
      ],
      "name": "withdraw",
      "outputs": [],
      "payable": false,
      "stateMutability": "nonpayable",
      "type": "function"
    },
    {
      "constant": false,
      "inputs": [
        {
          "name": "gameID",
          "type": "uint256"
        }
      ],
      "name": "cancelBet",
      "outputs": [],
      "payable": false,
      "stateMutability": "nonpayable",
      "type": "function"
    },
    {
      "constant": true,
      "inputs": [
        {
          "name": "gameID",
          "type": "uint256"
        }
      ],
      "name": "getGame",
      "outputs": [
        {
          "name": "",
          "type": "uint8"
        },
        {
          "name": "",
          "type": "address"
        },
        {
          "name": "",
          "type": "address"
        },
        {
          "name": "",
          "type": "uint256"
        },
        {
          "name": "",
          "type": "uint256"
        },
        {
          "name": "",
          "type": "uint256"
        }
      ],
      "payable": false,
      "stateMutability": "view",
      "type": "function"
    },
    {
      "constant": true,
      "inputs": [
        {
          "name": "gameID",
          "type": "uint256"
        }
      ],
      "name": "getWinner",
      "outputs": [
        {
          "name": "",
          "type": "address"
        }
      ],
      "payable": false,
      "stateMutability": "view",
      "type": "function"
    },
    {
      "constant": true,
      "inputs": [
        {
          "name": "gameID",
          "type": "uint256"
        }
      ],
      "name": "getStatus",
      "outputs": [
        {
          "name": "",
          "type": "uint8"
        }
      ],
      "payable": false,
      "stateMutability": "view",
      "type": "function"
    },
    {
      "constant": true,
      "inputs": [
        {
          "name": "_address",
          "type": "address"
        }
      ],
      "name": "getEarnings",
      "outputs": [
        {
          "name": "",
          "type": "int256"
        }
      ],
      "payable": false,
      "stateMutability": "view",
      "type": "function"
    }
  ],
  "bytecode": "0x608060405234801561001057600080fd5b50604051604080611c738339810180604052604081101561003057600080fd5b810190808051906020019092919080519060200190929190505050336000806101000a81548173ffffffffffffffffffffffffffffffffffffffff021916908373ffffffffffffffffffffffffffffffffffffffff16021790555081600160006101000a81548173ffffffffffffffffffffffffffffffffffffffff021916908373ffffffffffffffffffffffffffffffffffffffff160217905550806004819055505050611b8f806100e46000396000f3fe6080604052600436106100c25760003560e01c80634a7a31ad1161007f57806362118eb71161005957806362118eb7146104715780638da5cb5b146104ec578063a2f77bcc14610543578063b24fd5c514610613576100c2565b80634a7a31ad1461035c578063543fd313146103b75780635c622a0e1461041c576100c2565b806310fe7c48146100c7578063117a5b90146100f5578063131b9c04146102065780632e1a7d4d1461026b578063357401f5146102a65780634129b2c9146102e1575b600080fd5b6100f3600480360360208110156100dd57600080fd5b810190808035906020019092919050505061066a565b005b34801561010157600080fd5b5061012e6004803603602081101561011857600080fd5b8101908080359060200190929190505050610b98565b604051808a60ff1660ff1681526020018981526020018873ffffffffffffffffffffffffffffffffffffffff1673ffffffffffffffffffffffffffffffffffffffff1681526020018773ffffffffffffffffffffffffffffffffffffffff1673ffffffffffffffffffffffffffffffffffffffff1681526020018673ffffffffffffffffffffffffffffffffffffffff1673ffffffffffffffffffffffffffffffffffffffff168152602001858152602001848152602001838152602001828152602001995050505050505050505060405180910390f35b34801561021257600080fd5b506102556004803603602081101561022957600080fd5b81019080803573ffffffffffffffffffffffffffffffffffffffff169060200190929190505050610c53565b6040518082815260200191505060405180910390f35b34801561027757600080fd5b506102a46004803603602081101561028e57600080fd5b8101908080359060200190929190505050610c9c565b005b3480156102b257600080fd5b506102df600480360360208110156102c957600080fd5b8101908080359060200190929190505050611329565b005b3480156102ed57600080fd5b5061031a6004803603602081101561030457600080fd5b81019080803590602001909291905050506113a0565b604051808273ffffffffffffffffffffffffffffffffffffffff1673ffffffffffffffffffffffffffffffffffffffff16815260200191505060405180910390f35b34801561036857600080fd5b506103b56004803603604081101561037f57600080fd5b8101908080359060200190929190803573ffffffffffffffffffffffffffffffffffffffff1690602001909291905050506113e0565b005b3480156103c357600080fd5b50610406600480360360208110156103da57600080fd5b81019080803573ffffffffffffffffffffffffffffffffffffffff169060200190929190505050611522565b6040518082815260200191505060405180910390f35b34801561042857600080fd5b506104556004803603602081101561043f57600080fd5b810190808035906020019092919050505061153a565b604051808260ff1660ff16815260200191505060405180910390f35b34801561047d57600080fd5b506104ea6004803603606081101561049457600080fd5b8101908080359060200190929190803573ffffffffffffffffffffffffffffffffffffffff169060200190929190803573ffffffffffffffffffffffffffffffffffffffff169060200190929190505050611567565b005b3480156104f857600080fd5b50610501611758565b604051808273ffffffffffffffffffffffffffffffffffffffff1673ffffffffffffffffffffffffffffffffffffffff16815260200191505060405180910390f35b34801561054f57600080fd5b5061057c6004803603602081101561056657600080fd5b810190808035906020019092919050505061177d565b604051808760ff1660ff1681526020018673ffffffffffffffffffffffffffffffffffffffff1673ffffffffffffffffffffffffffffffffffffffff1681526020018573ffffffffffffffffffffffffffffffffffffffff1673ffffffffffffffffffffffffffffffffffffffff168152602001848152602001838152602001828152602001965050505050505060405180910390f35b34801561061f57600080fd5b50610628611878565b604051808273ffffffffffffffffffffffffffffffffffffffff1673ffffffffffffffffffffffffffffffffffffffff16815260200191505060405180910390f35b60016002600083815260200190815260200160002060000160009054906101000a900460ff1660ff161461069d57600080fd5b60006002600083815260200190815260200160002060050154146106c057600080fd5b6000600260008381526020019081526020016000206007015414156107c9573373ffffffffffffffffffffffffffffffffffffffff166002600083815260200190815260200160002060030160009054906101000a900473ffffffffffffffffffffffffffffffffffffffff1673ffffffffffffffffffffffffffffffffffffffff161461074d57600080fd5b3460026000838152602001908152602001600020600701819055503373ffffffffffffffffffffffffffffffffffffffff16817fb1bd10cf5ea9540f12b9b182707734fd82deacc56830e2bd316133deb372bff434600160405180838152602001821515151581526020019250505060405180910390a3610b95565b336002600083815260200190815260200160002060040160006101000a81548173ffffffffffffffffffffffffffffffffffffffff021916908373ffffffffffffffffffffffffffffffffffffffff1602179055503460026000838152602001908152602001600020600701541115610922576000600260008381526020019081526020016000206007015490503460026000848152602001908152602001600020600701819055503460026000848152602001908152602001600020600801819055506002600083815260200190815260200160002060030160009054906101000a900473ffffffffffffffffffffffffffffffffffffffff1673ffffffffffffffffffffffffffffffffffffffff166108fc6108f0348461189e90919063ffffffff16565b9081150290604051600060405180830381858888f1935050505015801561091b573d6000803e3d6000fd5b5050610a00565b346002600083815260200190815260200160002060070154116109ff576002600082815260200190815260200160002060070154600260008381526020019081526020016000206008018190555034600260008381526020019081526020016000206007015410156109fe573373ffffffffffffffffffffffffffffffffffffffff166108fc6109d160026000858152602001908152602001600020600701543461189e90919063ffffffff16565b9081150290604051600060405180830381858888f193505050501580156109fc573d6000803e3d6000fd5b505b5b5b6000610a41600260008481526020019081526020016000206008015460026000858152602001908152602001600020600701546118b590919063ffffffff16565b9050610a58600454826118d190919063ffffffff16565b6002600084815260200190815260200160002060060181905550610a9b60026000848152602001908152602001600020600601548261189e90919063ffffffff16565b60026000848152602001908152602001600020600501819055503373ffffffffffffffffffffffffffffffffffffffff16827fb1bd10cf5ea9540f12b9b182707734fd82deacc56830e2bd316133deb372bff46002600086815260200190815260200160002060080154600060405180838152602001821515151581526020019250505060405180910390a3817fe97d1f4b4bf9fb8636419dba7bb7f39800e301ff0971928faafdda650bf4961d60026000858152602001908152602001600020600501546002600086815260200190815260200160002060060154604051808381526020018281526020019250505060405180910390a2505b50565b60026020528060005260406000206000915090508060000160009054906101000a900460ff16908060010154908060020160009054906101000a900473ffffffffffffffffffffffffffffffffffffffff16908060030160009054906101000a900473ffffffffffffffffffffffffffffffffffffffff16908060040160009054906101000a900473ffffffffffffffffffffffffffffffffffffffff16908060050154908060060154908060070154908060080154905089565b6000600360008373ffffffffffffffffffffffffffffffffffffffff1673ffffffffffffffffffffffffffffffffffffffff168152602001908152602001600020549050919050565b600280600083815260200190815260200160002060000160009054906101000a900460ff1660ff1614610cce57600080fd5b60036002600083815260200190815260200160002060000160006101000a81548160ff021916908360ff16021790555060008073ffffffffffffffffffffffffffffffffffffffff166002600084815260200190815260200160002060020160009054906101000a900473ffffffffffffffffffffffffffffffffffffffff1673ffffffffffffffffffffffffffffffffffffffff161415610fb7576002600083815260200190815260200160002060030160009054906101000a900473ffffffffffffffffffffffffffffffffffffffff1673ffffffffffffffffffffffffffffffffffffffff166108fc60026000858152602001908152602001600020600701549081150290604051600060405180830381858888f19350505050158015610dfc573d6000803e3d6000fd5b5060026000838152602001908152602001600020600701546002600084815260200190815260200160002060030160009054906101000a900473ffffffffffffffffffffffffffffffffffffffff1673ffffffffffffffffffffffffffffffffffffffff16837f9da6493a92039daf47d1f2d7a782299c5994c6323eb1e972f69c432089ec52bf60405160405180910390a46002600083815260200190815260200160002060030160009054906101000a900473ffffffffffffffffffffffffffffffffffffffff1673ffffffffffffffffffffffffffffffffffffffff166108fc60026000858152602001908152602001600020600801549081150290604051600060405180830381858888f19350505050158015610f20573d6000803e3d6000fd5b5060026000838152602001908152602001600020600801546002600084815260200190815260200160002060040160009054906101000a900473ffffffffffffffffffffffffffffffffffffffff1673ffffffffffffffffffffffffffffffffffffffff16837f9da6493a92039daf47d1f2d7a782299c5994c6323eb1e972f69c432089ec52bf60405160405180910390a4611325565b6002600083815260200190815260200160002060070154600360006002600086815260200190815260200160002060030160009054906101000a900473ffffffffffffffffffffffffffffffffffffffff1673ffffffffffffffffffffffffffffffffffffffff1673ffffffffffffffffffffffffffffffffffffffff168152602001908152602001600020600082825403925050819055506002600083815260200190815260200160002060080154600360006002600086815260200190815260200160002060040160009054906101000a900473ffffffffffffffffffffffffffffffffffffffff1673ffffffffffffffffffffffffffffffffffffffff1673ffffffffffffffffffffffffffffffffffffffff168152602001908152602001600020600082825403925050819055506002600083815260200190815260200160002060050154600360006002600086815260200190815260200160002060020160009054906101000a900473ffffffffffffffffffffffffffffffffffffffff1673ffffffffffffffffffffffffffffffffffffffff1673ffffffffffffffffffffffffffffffffffffffff168152602001908152602001600020600082825401925050819055506000809054906101000a900473ffffffffffffffffffffffffffffffffffffffff1673ffffffffffffffffffffffffffffffffffffffff166108fc60026000858152602001908152602001600020600601549081150290604051600060405180830381858888f193505050501580156111ff573d6000803e3d6000fd5b506002600083815260200190815260200160002060020160009054906101000a900473ffffffffffffffffffffffffffffffffffffffff1673ffffffffffffffffffffffffffffffffffffffff166108fc60026000858152602001908152602001600020600501549081150290604051600060405180830381858888f19350505050158015611292573d6000803e3d6000fd5b5060026000838152602001908152602001600020600501546002600084815260200190815260200160002060020160009054906101000a900473ffffffffffffffffffffffffffffffffffffffff1673ffffffffffffffffffffffffffffffffffffffff16837f9da6493a92039daf47d1f2d7a782299c5994c6323eb1e972f69c432089ec52bf60405160405180910390a45b5050565b60016002600083815260200190815260200160002060000160009054906101000a900460ff1660ff161461135c57600080fd5b4261138962093a8060026000858152602001908152602001600020600101546118b590919063ffffffff16565b1061139357600080fd5b61139c816118ef565b5050565b60006002600083815260200190815260200160002060020160009054906101000a900473ffffffffffffffffffffffffffffffffffffffff169050919050565b600160009054906101000a900473ffffffffffffffffffffffffffffffffffffffff1673ffffffffffffffffffffffffffffffffffffffff163373ffffffffffffffffffffffffffffffffffffffff161461143a57600080fd5b60016002600084815260200190815260200160002060000160006101000a81548160ff021916908360ff160217905550426002600084815260200190815260200160002060010181905550806002600084815260200190815260200160002060030160006101000a81548173ffffffffffffffffffffffffffffffffffffffff021916908373ffffffffffffffffffffffffffffffffffffffff1602179055508073ffffffffffffffffffffffffffffffffffffffff16827fb4ab36f4d2fee8698466065c4ee831b4748994cdd8de1c10a834a1d9b945233760405160405180910390a35050565b60036020528060005260406000206000915090505481565b60006002600083815260200190815260200160002060000160009054906101000a900460ff169050919050565b600160009054906101000a900473ffffffffffffffffffffffffffffffffffffffff1673ffffffffffffffffffffffffffffffffffffffff163373ffffffffffffffffffffffffffffffffffffffff16146115c157600080fd5b60016002600085815260200190815260200160002060000160009054906101000a900460ff1660ff16146115f457600080fd5b8173ffffffffffffffffffffffffffffffffffffffff166002600085815260200190815260200160002060040160009054906101000a900473ffffffffffffffffffffffffffffffffffffffff1673ffffffffffffffffffffffffffffffffffffffff1614158061167b575060006002600085815260200190815260200160002060050154145b1561168b57611689836118ef565b505b600280600085815260200190815260200160002060000160006101000a81548160ff021916908360ff160217905550806002600085815260200190815260200160002060020160006101000a81548173ffffffffffffffffffffffffffffffffffffffff021916908373ffffffffffffffffffffffffffffffffffffffff1602179055508073ffffffffffffffffffffffffffffffffffffffff16837f6b5936f5be80114e7a91daf84ba4886ece975aaffac48c9609cfa022d74a8a7d60405160405180910390a3505050565b6000809054906101000a900473ffffffffffffffffffffffffffffffffffffffff1681565b6000806000806000806002600088815260200190815260200160002060000160009054906101000a900460ff166002600089815260200190815260200160002060030160009054906101000a900473ffffffffffffffffffffffffffffffffffffffff16600260008a815260200190815260200160002060040160009054906101000a900473ffffffffffffffffffffffffffffffffffffffff16600260008b815260200190815260200160002060050154600260008c815260200190815260200160002060070154600260008d81526020019081526020016000206008015484945083935095509550955095509550955091939550919395565b600160009054906101000a900473ffffffffffffffffffffffffffffffffffffffff1681565b6000828211156118aa57fe5b818303905092915050565b6000808284019050838110156118c757fe5b8091505092915050565b60006118e76118e08484611b18565b6064611b4f565b905092915050565b600080600260008481526020019081526020016000206007015411156119c557600060026000848152602001908152602001600020600701549050600060026000858152602001908152602001600020600701819055506002600084815260200190815260200160002060030160009054906101000a900473ffffffffffffffffffffffffffffffffffffffff1673ffffffffffffffffffffffffffffffffffffffff166108fc829081150290604051600060405180830381858888f193505050501580156119c2573d6000803e3d6000fd5b50505b600060026000848152602001908152602001600020600801541115611a9a57600060026000848152602001908152602001600020600801549050600060026000858152602001908152602001600020600801819055506002600084815260200190815260200160002060040160009054906101000a900473ffffffffffffffffffffffffffffffffffffffff1673ffffffffffffffffffffffffffffffffffffffff166108fc829081150290604051600060405180830381858888f19350505050158015611a97573d6000803e3d6000fd5b50505b6000600260008481526020019081526020016000206005018190555060006002600084815260200190815260200160002060060181905550817fe97d1f4b4bf9fb8636419dba7bb7f39800e301ff0971928faafdda650bf4961d600080604051808381526020018281526020019250505060405180910390a2919050565b600080831415611b2b5760009050611b49565b6000828402905082848281611b3c57fe5b0414611b4457fe5b809150505b92915050565b6000818381611b5a57fe5b0490509291505056fea165627a7a7230582079df11070a5f142490346212137557190c212ab7e1da61ae156cad92e553adf60029",
  "source": "pragma solidity 0.5.8;\n\nimport './SafeMath.sol';\n\ncontract RockPaperScissors {\n  using SafeMath for uint256;\n\n  address payable public owner;\n  address public enigma;\n\n  struct Game {\n    uint8 status;\n    uint256 start;\n    address payable winner;\n    address payable player1;\n    address payable player2;\n    uint256 purse;\n    uint256 cut;\n    uint256 bet1;\n    uint256 bet2;\n  }\n\n  //mapping(bytes32 => uint8) public results;\n  mapping(uint256 => Game) public games;\n  mapping(address => int256) public earnings;\n  uint256 ownerPercent;\n\n\n  // Constructor called when new contract is deployed\n  constructor(address _enigmaAddress, uint256 _ownerPercent) public {\n    owner = msg.sender;\n    enigma = _enigmaAddress;\n    ownerPercent = _ownerPercent;\n  }\n\n  //Create new game, pass bet and encrypted move\n  function newGame(uint256 gameID, address payable player1)\n  onlyEnigma()\n  external {\n    games[gameID].status = 1;\n    games[gameID].start = now;\n    games[gameID].player1 = player1;\n    emit NewGame(gameID, player1);\n  }\n\n  function placeBet(uint256 gameID)\n  payable\n  external {\n    require(games[gameID].status == 1); //Cannot place bet on a game that hasn't started or already finished\n    require(games[gameID].purse == 0); //Cannot place bet if the purse has already been set\n    if(games[gameID].bet1 == 0){\n      require(games[gameID].player1 == msg.sender);\n      games[gameID].bet1 = msg.value;\n      emit BetPlaced(gameID, msg.sender, msg.value, true);\n    } else {\n      games[gameID].player2 = msg.sender;\n      if(games[gameID].bet1 > msg.value){\n        //Get the original bet made by player 1\n        uint256 bet = games[gameID].bet1;\n        games[gameID].bet1 = msg.value;\n        games[gameID].bet2 = msg.value;\n        //Return funds leftover because player 2 made a lower bet than player 1\n        games[gameID].player1.transfer(bet.sub(msg.value));\n      } else if(games[gameID].bet1 <= msg.value){\n        //player 2 matches player 1's bet. Additional funds will be returned to player 2\n        games[gameID].bet2 = games[gameID].bet1;\n        if(games[gameID].bet1 < msg.value){\n          //Return funds leftover because player 2 made a higher bet than player 1\n          msg.sender.transfer(msg.value.sub(games[gameID].bet1));\n        }\n      }\n      uint256 total = games[gameID].bet1.add(games[gameID].bet2);\n      games[gameID].cut = total.getFractionalAmount(ownerPercent);\n      games[gameID].purse = total.sub(games[gameID].cut);\n      emit BetPlaced(gameID, msg.sender, games[gameID].bet2, false);\n      emit Purse(gameID, games[gameID].purse, games[gameID].cut);\n    }\n  }\n\n  function setWinner(uint256 gameID, address player2, address payable winner) public onlyEnigma() {\n    require(games[gameID].status == 1);\n    if(games[gameID].player2 != player2 || games[gameID].purse == 0){\n      //Bets refunded\n      refund(gameID);\n    }\n    games[gameID].status = 2;\n    games[gameID].winner = winner;\n    emit Winner(gameID, winner);\n  }\n\n  //Withdraw winnings\n  function withdraw(uint256 gameID)\n  external{\n    require(games[gameID].status == 2);\n    games[gameID].status = 3;\n    uint winnings;\n    if(games[gameID].winner == address(0)){\n      games[gameID].player1.transfer(games[gameID].bet1);\n      emit Withdraw(gameID, games[gameID].player1, games[gameID].bet1);\n      games[gameID].player1.transfer(games[gameID].bet2);\n      emit Withdraw(gameID, games[gameID].player2, games[gameID].bet2);\n    } else {\n      earnings[games[gameID].player1] -= int256(games[gameID].bet1);\n      earnings[games[gameID].player2] -= int256(games[gameID].bet2);\n      earnings[games[gameID].winner] += int256(games[gameID].purse);\n      owner.transfer(games[gameID].cut);\n      games[gameID].winner.transfer(games[gameID].purse);\n      emit Withdraw(gameID, games[gameID].winner, games[gameID].purse);\n    }\n  }\n\n  function cancelBet(uint256 gameID)\n  external{\n    require(games[gameID].status == 1);\n    require(games[gameID].start.add(604800) < now); //Bets can be cancelled if the game has not completed after a week\n    refund(gameID);\n  }\n\n  function getGame(uint256 gameID)\n  external\n  view\n  returns(uint8, address, address, uint256, uint256, uint256){\n    return (games[gameID].status,\n            games[gameID].player1,\n            games[gameID].player2,\n            games[gameID].purse,\n            games[gameID].bet1,\n            games[gameID].bet2);\n  }\n\n  function getWinner(uint256 gameID)\n  external\n  view\n  returns(address){\n    return games[gameID].winner;\n  }\n\n  function getStatus(uint256 gameID)\n  external\n  view\n  returns(uint8){\n    return games[gameID].status;\n  }\n\n  function getEarnings(address _address)\n  external\n  view\n  returns(int256){\n    return earnings[_address];\n  }\n\n  function refund(uint256 gameID)\n  private\n  returns(bool){\n    if(games[gameID].bet1 > 0){\n      uint256 bet1 = games[gameID].bet1;\n      games[gameID].bet1 = 0;\n      games[gameID].player1.transfer(bet1);\n    }\n\n    if(games[gameID].bet2 > 0){\n      uint256 bet2 = games[gameID].bet2;\n      games[gameID].bet2 = 0;\n      games[gameID].player2.transfer(bet2);\n    }\n    games[gameID].purse = 0;\n    games[gameID].cut = 0;\n    emit Purse(gameID, 0, 0);\n  }\n\n  // Modifier to ensure only enigma contract can call function\n  modifier onlyEnigma() {\n    require(msg.sender == enigma);\n    _;\n  }\n\n  // Event emitted upon callback completion; watched from front end\n  event Winner(uint256 indexed gameID, address indexed winner);\n  event NewGame(uint256 indexed gameID, address indexed player1);\n  event Withdraw(uint256 indexed gameID, address indexed player, uint256 indexed amount);\n  event BetPlaced(uint256 indexed gameID, address indexed player,  uint256 bet, bool firstBet);\n  event Purse(uint256 indexed gameID, uint256 purse, uint256 cut);\n}\n",
  "sourcePath": "/home/peter/Documents/Work/Enigma/discovery-test/smart_contracts/RockPaperScissors.sol",
  "compiler": {
    "name": "solc",
    "version": "0.5.8+commit.23d335f2.Emscripten.clang"
  },
  "schemaVersion": "3.0.11",
  "updatedAt": "2019-09-18T17:10:17.277Z",
  "devdoc": {
    "methods": {}
  },
  "userdoc": {
    "methods": {}
  }
}